{
  "_format": "hh-sol-artifact-1",
  "contractName": "SmartWager",
  "sourceName": "contracts/SmartWager.sol",
  "abi": [
    {
      "inputs": [],
      "stateMutability": "nonpayable",
      "type": "constructor"
    },
    {
      "inputs": [],
      "name": "ERC721EnumerableForbiddenBatchMint",
      "type": "error"
    },
    {
      "inputs": [
        {
          "internalType": "address",
          "name": "sender",
          "type": "address"
        },
        {
          "internalType": "uint256",
          "name": "tokenId",
          "type": "uint256"
        },
        {
          "internalType": "address",
          "name": "owner",
          "type": "address"
        }
      ],
      "name": "ERC721IncorrectOwner",
      "type": "error"
    },
    {
      "inputs": [
        {
          "internalType": "address",
          "name": "operator",
          "type": "address"
        },
        {
          "internalType": "uint256",
          "name": "tokenId",
          "type": "uint256"
        }
      ],
      "name": "ERC721InsufficientApproval",
      "type": "error"
    },
    {
      "inputs": [
        {
          "internalType": "address",
          "name": "approver",
          "type": "address"
        }
      ],
      "name": "ERC721InvalidApprover",
      "type": "error"
    },
    {
      "inputs": [
        {
          "internalType": "address",
          "name": "operator",
          "type": "address"
        }
      ],
      "name": "ERC721InvalidOperator",
      "type": "error"
    },
    {
      "inputs": [
        {
          "internalType": "address",
          "name": "owner",
          "type": "address"
        }
      ],
      "name": "ERC721InvalidOwner",
      "type": "error"
    },
    {
      "inputs": [
        {
          "internalType": "address",
          "name": "receiver",
          "type": "address"
        }
      ],
      "name": "ERC721InvalidReceiver",
      "type": "error"
    },
    {
      "inputs": [
        {
          "internalType": "address",
          "name": "sender",
          "type": "address"
        }
      ],
      "name": "ERC721InvalidSender",
      "type": "error"
    },
    {
      "inputs": [
        {
          "internalType": "uint256",
          "name": "tokenId",
          "type": "uint256"
        }
      ],
      "name": "ERC721NonexistentToken",
      "type": "error"
    },
    {
      "inputs": [
        {
          "internalType": "address",
          "name": "owner",
          "type": "address"
        },
        {
          "internalType": "uint256",
          "name": "index",
          "type": "uint256"
        }
      ],
      "name": "ERC721OutOfBoundsIndex",
      "type": "error"
    },
    {
      "inputs": [
        {
          "internalType": "address",
          "name": "owner",
          "type": "address"
        }
      ],
      "name": "OwnableInvalidOwner",
      "type": "error"
    },
    {
      "inputs": [
        {
          "internalType": "address",
          "name": "account",
          "type": "address"
        }
      ],
      "name": "OwnableUnauthorizedAccount",
      "type": "error"
    },
    {
      "anonymous": false,
      "inputs": [
        {
          "indexed": true,
          "internalType": "address",
          "name": "owner",
          "type": "address"
        },
        {
          "indexed": true,
          "internalType": "address",
          "name": "approved",
          "type": "address"
        },
        {
          "indexed": true,
          "internalType": "uint256",
          "name": "tokenId",
          "type": "uint256"
        }
      ],
      "name": "Approval",
      "type": "event"
    },
    {
      "anonymous": false,
      "inputs": [
        {
          "indexed": true,
          "internalType": "address",
          "name": "owner",
          "type": "address"
        },
        {
          "indexed": true,
          "internalType": "address",
          "name": "operator",
          "type": "address"
        },
        {
          "indexed": false,
          "internalType": "bool",
          "name": "approved",
          "type": "bool"
        }
      ],
      "name": "ApprovalForAll",
      "type": "event"
    },
    {
      "anonymous": false,
      "inputs": [
        {
          "indexed": true,
          "internalType": "address",
          "name": "previousOwner",
          "type": "address"
        },
        {
          "indexed": true,
          "internalType": "address",
          "name": "newOwner",
          "type": "address"
        }
      ],
      "name": "OwnershipTransferred",
      "type": "event"
    },
    {
      "anonymous": false,
      "inputs": [
        {
          "indexed": true,
          "internalType": "address",
          "name": "from",
          "type": "address"
        },
        {
          "indexed": true,
          "internalType": "address",
          "name": "to",
          "type": "address"
        },
        {
          "indexed": true,
          "internalType": "uint256",
          "name": "tokenId",
          "type": "uint256"
        }
      ],
      "name": "Transfer",
      "type": "event"
    },
    {
      "inputs": [
        {
          "internalType": "address",
          "name": "to",
          "type": "address"
        },
        {
          "internalType": "uint256",
          "name": "tokenId",
          "type": "uint256"
        }
      ],
      "name": "approve",
      "outputs": [],
      "stateMutability": "nonpayable",
      "type": "function"
    },
    {
      "inputs": [
        {
          "internalType": "address",
          "name": "owner",
          "type": "address"
        }
      ],
      "name": "balanceOf",
      "outputs": [
        {
          "internalType": "uint256",
          "name": "",
          "type": "uint256"
        }
      ],
      "stateMutability": "view",
      "type": "function"
    },
    {
      "inputs": [
        {
          "internalType": "uint256",
          "name": "tokenId",
          "type": "uint256"
        }
      ],
      "name": "burnCard",
      "outputs": [],
      "stateMutability": "nonpayable",
      "type": "function"
    },
    {
      "inputs": [
        {
          "internalType": "uint256",
          "name": "tokenId",
          "type": "uint256"
        }
      ],
      "name": "getApproved",
      "outputs": [
        {
          "internalType": "address",
          "name": "",
          "type": "address"
        }
      ],
      "stateMutability": "view",
      "type": "function"
    },
    {
      "inputs": [
        {
          "internalType": "uint256",
          "name": "tokenId",
          "type": "uint256"
        }
      ],
      "name": "getCardExpiration",
      "outputs": [
        {
          "internalType": "uint256",
          "name": "",
          "type": "uint256"
        }
      ],
      "stateMutability": "view",
      "type": "function"
    },
    {
      "inputs": [],
      "name": "getCardLImitPerAccount",
      "outputs": [
        {
          "internalType": "uint256",
          "name": "",
          "type": "uint256"
        }
      ],
      "stateMutability": "view",
      "type": "function"
    },
    {
      "inputs": [
        {
          "internalType": "uint256",
          "name": "tokenId",
          "type": "uint256"
        }
      ],
      "name": "getCardType",
      "outputs": [
        {
          "internalType": "string",
          "name": "",
          "type": "string"
        }
      ],
      "stateMutability": "view",
      "type": "function"
    },
    {
      "inputs": [],
      "name": "getPrice",
      "outputs": [
        {
          "internalType": "uint256",
          "name": "",
          "type": "uint256"
        }
      ],
      "stateMutability": "view",
      "type": "function"
    },
    {
      "inputs": [],
      "name": "getRemain",
      "outputs": [
        {
          "internalType": "uint256",
          "name": "",
          "type": "uint256"
        }
      ],
      "stateMutability": "view",
      "type": "function"
    },
    {
      "inputs": [],
      "name": "getSupplyLimit",
      "outputs": [
        {
          "internalType": "uint256",
          "name": "",
          "type": "uint256"
        }
      ],
      "stateMutability": "view",
      "type": "function"
    },
    {
      "inputs": [
        {
          "internalType": "address",
          "name": "owner",
          "type": "address"
        },
        {
          "internalType": "address",
          "name": "operator",
          "type": "address"
        }
      ],
      "name": "isApprovedForAll",
      "outputs": [
        {
          "internalType": "bool",
          "name": "",
          "type": "bool"
        }
      ],
      "stateMutability": "view",
      "type": "function"
    },
    {
      "inputs": [
        {
          "internalType": "uint256",
          "name": "cardType",
          "type": "uint256"
        }
      ],
      "name": "mintCard",
      "outputs": [],
      "stateMutability": "nonpayable",
      "type": "function"
    },
    {
      "inputs": [
        {
          "internalType": "uint256",
          "name": "quantity",
          "type": "uint256"
        }
      ],
      "name": "mintRandomCard",
      "outputs": [],
      "stateMutability": "payable",
      "type": "function"
    },
    {
      "inputs": [
        {
          "internalType": "uint256",
          "name": "cardType",
          "type": "uint256"
        },
        {
          "internalType": "uint256",
          "name": "quantity",
          "type": "uint256"
        }
      ],
      "name": "mintSpecificCard",
      "outputs": [],
      "stateMutability": "payable",
      "type": "function"
    },
    {
      "inputs": [],
      "name": "name",
      "outputs": [
        {
          "internalType": "string",
          "name": "",
          "type": "string"
        }
      ],
      "stateMutability": "view",
      "type": "function"
    },
    {
      "inputs": [],
      "name": "owner",
      "outputs": [
        {
          "internalType": "address",
          "name": "",
          "type": "address"
        }
      ],
      "stateMutability": "view",
      "type": "function"
    },
    {
      "inputs": [
        {
          "internalType": "uint256",
          "name": "tokenId",
          "type": "uint256"
        }
      ],
      "name": "ownerOf",
      "outputs": [
        {
          "internalType": "address",
          "name": "",
          "type": "address"
        }
      ],
      "stateMutability": "view",
      "type": "function"
    },
    {
      "inputs": [],
      "name": "renounceOwnership",
      "outputs": [],
      "stateMutability": "nonpayable",
      "type": "function"
    },
    {
      "inputs": [
        {
          "internalType": "address",
          "name": "from",
          "type": "address"
        },
        {
          "internalType": "address",
          "name": "to",
          "type": "address"
        },
        {
          "internalType": "uint256",
          "name": "tokenId",
          "type": "uint256"
        }
      ],
      "name": "safeTransferFrom",
      "outputs": [],
      "stateMutability": "nonpayable",
      "type": "function"
    },
    {
      "inputs": [
        {
          "internalType": "address",
          "name": "from",
          "type": "address"
        },
        {
          "internalType": "address",
          "name": "to",
          "type": "address"
        },
        {
          "internalType": "uint256",
          "name": "tokenId",
          "type": "uint256"
        },
        {
          "internalType": "bytes",
          "name": "data",
          "type": "bytes"
        }
      ],
      "name": "safeTransferFrom",
      "outputs": [],
      "stateMutability": "nonpayable",
      "type": "function"
    },
    {
      "inputs": [
        {
          "internalType": "address",
          "name": "operator",
          "type": "address"
        },
        {
          "internalType": "bool",
          "name": "approved",
          "type": "bool"
        }
      ],
      "name": "setApprovalForAll",
      "outputs": [],
      "stateMutability": "nonpayable",
      "type": "function"
    },
    {
      "inputs": [
        {
          "internalType": "uint256",
          "name": "tokenId",
          "type": "uint256"
        },
        {
          "internalType": "uint256",
          "name": "endTime",
          "type": "uint256"
        }
      ],
      "name": "setCardExpiration",
      "outputs": [],
      "stateMutability": "nonpayable",
      "type": "function"
    },
    {
      "inputs": [
        {
          "internalType": "uint256",
          "name": "count",
          "type": "uint256"
        }
      ],
      "name": "setCardLimitPerAccout",
      "outputs": [],
      "stateMutability": "nonpayable",
      "type": "function"
    },
    {
      "inputs": [
        {
          "internalType": "uint256",
          "name": "prc",
          "type": "uint256"
        }
      ],
      "name": "setPrice",
      "outputs": [],
      "stateMutability": "nonpayable",
      "type": "function"
    },
    {
      "inputs": [
        {
          "internalType": "uint256",
          "name": "limit",
          "type": "uint256"
        }
      ],
      "name": "setSupplyLimit",
      "outputs": [],
      "stateMutability": "nonpayable",
      "type": "function"
    },
    {
      "inputs": [
        {
          "internalType": "bytes4",
          "name": "interfaceId",
          "type": "bytes4"
        }
      ],
      "name": "supportsInterface",
      "outputs": [
        {
          "internalType": "bool",
          "name": "",
          "type": "bool"
        }
      ],
      "stateMutability": "view",
      "type": "function"
    },
    {
      "inputs": [],
      "name": "symbol",
      "outputs": [
        {
          "internalType": "string",
          "name": "",
          "type": "string"
        }
      ],
      "stateMutability": "view",
      "type": "function"
    },
    {
      "inputs": [
        {
          "internalType": "uint256",
          "name": "index",
          "type": "uint256"
        }
      ],
      "name": "tokenByIndex",
      "outputs": [
        {
          "internalType": "uint256",
          "name": "",
          "type": "uint256"
        }
      ],
      "stateMutability": "view",
      "type": "function"
    },
    {
      "inputs": [
        {
          "internalType": "address",
          "name": "owner",
          "type": "address"
        },
        {
          "internalType": "uint256",
          "name": "index",
          "type": "uint256"
        }
      ],
      "name": "tokenOfOwnerByIndex",
      "outputs": [
        {
          "internalType": "uint256",
          "name": "",
          "type": "uint256"
        }
      ],
      "stateMutability": "view",
      "type": "function"
    },
    {
      "inputs": [
        {
          "internalType": "uint256",
          "name": "tokenId",
          "type": "uint256"
        }
      ],
      "name": "tokenURI",
      "outputs": [
        {
          "internalType": "string",
          "name": "",
          "type": "string"
        }
      ],
      "stateMutability": "view",
      "type": "function"
    },
    {
      "inputs": [],
      "name": "totalSupply",
      "outputs": [
        {
          "internalType": "uint256",
          "name": "",
          "type": "uint256"
        }
      ],
      "stateMutability": "view",
      "type": "function"
    },
    {
      "inputs": [
        {
          "internalType": "address",
          "name": "from",
          "type": "address"
        },
        {
          "internalType": "address",
          "name": "to",
          "type": "address"
        },
        {
          "internalType": "uint256",
          "name": "tokenId",
          "type": "uint256"
        }
      ],
      "name": "transferFrom",
      "outputs": [],
      "stateMutability": "nonpayable",
      "type": "function"
    },
    {
      "inputs": [
        {
          "internalType": "address",
          "name": "newOwner",
          "type": "address"
        }
      ],
      "name": "transferOwnership",
      "outputs": [],
      "stateMutability": "nonpayable",
      "type": "function"
    },
    {
      "inputs": [],
      "name": "withdraw",
      "outputs": [],
      "stateMutability": "payable",
      "type": "function"
    }
  ],
  "bytecode": "0x60806040526000600b556005600c556103e8600d556702c68af0bb140000600e553480156200002d57600080fd5b50336040518060400160405280600b81526020017f536d6172742057616765720000000000000000000000000000000000000000008152506040518060400160405280600281526020017f53570000000000000000000000000000000000000000000000000000000000008152508160009081620000ac9190620005c4565b508060019081620000be9190620005c4565b505050600073ffffffffffffffffffffffffffffffffffffffff168173ffffffffffffffffffffffffffffffffffffffff1603620001365760006040517f1e4fbdf70000000000000000000000000000000000000000000000000000000081526004016200012d9190620006f0565b60405180910390fd5b62000147816200028460201b60201c565b506001600f60006001815260200190815260200160002081905550600a600f600060028152602001908152602001600020819055506101e9600f600060038152602001908152602001600020819055506101f4600f600060048152602001908152602001600020819055506002600e54620001c391906200073c565b60106000808152602001908152602001600020819055506005600e54620001eb91906200073c565b6010600060018152602001908152602001600020819055506003600e546200021491906200073c565b6010600060028152602001908152602001600020819055506002600e546200023d91906200073c565b6010600060038152602001908152602001600020819055506001600e546200026691906200073c565b60106000600481526020019081526020016000208190555062000787565b6000600a60009054906101000a900473ffffffffffffffffffffffffffffffffffffffff16905081600a60006101000a81548173ffffffffffffffffffffffffffffffffffffffff021916908373ffffffffffffffffffffffffffffffffffffffff1602179055508173ffffffffffffffffffffffffffffffffffffffff168173ffffffffffffffffffffffffffffffffffffffff167f8be0079c531659141344cd1fd0a4f28419497f9722a3daafe3b4186f6b6457e060405160405180910390a35050565b600081519050919050565b7f4e487b7100000000000000000000000000000000000000000000000000000000600052604160045260246000fd5b7f4e487b7100000000000000000000000000000000000000000000000000000000600052602260045260246000fd5b60006002820490506001821680620003cc57607f821691505b602082108103620003e257620003e162000384565b5b50919050565b60008190508160005260206000209050919050565b60006020601f8301049050919050565b600082821b905092915050565b6000600883026200044c7fffffffffffffffffffffffffffffffffffffffffffffffffffffffffffffffff826200040d565b6200045886836200040d565b95508019841693508086168417925050509392505050565b6000819050919050565b6000819050919050565b6000620004a56200049f620004998462000470565b6200047a565b62000470565b9050919050565b6000819050919050565b620004c18362000484565b620004d9620004d082620004ac565b8484546200041a565b825550505050565b600090565b620004f0620004e1565b620004fd818484620004b6565b505050565b5b81811015620005255762000519600082620004e6565b60018101905062000503565b5050565b601f82111562000574576200053e81620003e8565b6200054984620003fd565b8101602085101562000559578190505b620005716200056885620003fd565b83018262000502565b50505b505050565b600082821c905092915050565b6000620005996000198460080262000579565b1980831691505092915050565b6000620005b4838362000586565b9150826002028217905092915050565b620005cf826200034a565b67ffffffffffffffff811115620005eb57620005ea62000355565b5b620005f78254620003b3565b6200060482828562000529565b600060209050601f8311600181146200063c576000841562000627578287015190505b620006338582620005a6565b865550620006a3565b601f1984166200064c86620003e8565b60005b8281101562000676578489015182556001820191506020850194506020810190506200064f565b8683101562000696578489015162000692601f89168262000586565b8355505b6001600288020188555050505b505050505050565b600073ffffffffffffffffffffffffffffffffffffffff82169050919050565b6000620006d882620006ab565b9050919050565b620006ea81620006cb565b82525050565b6000602082019050620007076000830184620006df565b92915050565b7f4e487b7100000000000000000000000000000000000000000000000000000000600052601160045260246000fd5b6000620007498262000470565b9150620007568362000470565b9250828202620007668162000470565b9150828204841483151762000780576200077f6200070d565b5b5092915050565b613aa280620007976000396000f3fe6080604052600436106101f95760003560e01c8063715018a61161010d5780639df2b605116100a0578063c2200be91161006f578063c2200be914610715578063c87b56dd1461073e578063d8fb2c421461077b578063e985e9c514610797578063f2fde38b146107d4576101f9565b80639df2b6051461066f578063a22cb4651461069a578063b88d4fde146106c3578063ba7e7d05146106ec576101f9565b80638f5ba1e8116100dc5780638f5ba1e8146105c557806391b7f5ed146105f057806395d89b411461061957806398d5fdca14610644576101f9565b8063715018a61461052f578063756ccc02146105465780637fc0f98b1461056f5780638da5cb5b1461059a576101f9565b80632f745c591161019057806348dccd561161015f57806348dccd56146104125780634f6ccce71461044f57806360b47a501461048c5780636352211e146104b557806370a08231146104f2576101f9565b80632f745c5914610379578063361fab25146103b65780633ccfd60b146103df57806342842e0e146103e9576101f9565b80630d6a165e116101cc5780630d6a165e146102cc57806318160ddd146102e8578063239b541d1461031357806323b872dd14610350576101f9565b806301ffc9a7146101fe57806306fdde031461023b578063081812fc14610266578063095ea7b3146102a3575b600080fd5b34801561020a57600080fd5b5061022560048036038101906102209190612c3a565b6107fd565b6040516102329190612c82565b60405180910390f35b34801561024757600080fd5b50610250610877565b60405161025d9190612d2d565b60405180910390f35b34801561027257600080fd5b5061028d60048036038101906102889190612d85565b610909565b60405161029a9190612df3565b60405180910390f35b3480156102af57600080fd5b506102ca60048036038101906102c59190612e3a565b610925565b005b6102e660048036038101906102e19190612d85565b61093b565b005b3480156102f457600080fd5b506102fd610aa3565b60405161030a9190612e89565b60405180910390f35b34801561031f57600080fd5b5061033a60048036038101906103359190612d85565b610ab0565b6040516103479190612e89565b60405180910390f35b34801561035c57600080fd5b5061037760048036038101906103729190612ea4565b610b15565b005b34801561038557600080fd5b506103a0600480360381019061039b9190612e3a565b610c17565b6040516103ad9190612e89565b60405180910390f35b3480156103c257600080fd5b506103dd60048036038101906103d89190612d85565b610cc0565b005b6103e7610cd2565b005b3480156103f557600080fd5b50610410600480360381019061040b9190612ea4565b610d2a565b005b34801561041e57600080fd5b5061043960048036038101906104349190612d85565b610d4a565b6040516104469190612d2d565b60405180910390f35b34801561045b57600080fd5b5061047660048036038101906104719190612d85565b610edd565b6040516104839190612e89565b60405180910390f35b34801561049857600080fd5b506104b360048036038101906104ae9190612d85565b610f53565b005b3480156104c157600080fd5b506104dc60048036038101906104d79190612d85565b61102d565b6040516104e99190612df3565b60405180910390f35b3480156104fe57600080fd5b5061051960048036038101906105149190612ef7565b61103f565b6040516105269190612e89565b60405180910390f35b34801561053b57600080fd5b506105446110f9565b005b34801561055257600080fd5b5061056d60048036038101906105689190612d85565b61110d565b005b34801561057b57600080fd5b50610584611163565b6040516105919190612e89565b60405180910390f35b3480156105a657600080fd5b506105af61117f565b6040516105bc9190612df3565b60405180910390f35b3480156105d157600080fd5b506105da6111a9565b6040516105e79190612e89565b60405180910390f35b3480156105fc57600080fd5b5061061760048036038101906106129190612d85565b6111b3565b005b34801561062557600080fd5b5061062e611287565b60405161063b9190612d2d565b60405180910390f35b34801561065057600080fd5b50610659611319565b6040516106669190612e89565b60405180910390f35b34801561067b57600080fd5b50610684611323565b6040516106919190612e89565b60405180910390f35b3480156106a657600080fd5b506106c160048036038101906106bc9190612f50565b61132d565b005b3480156106cf57600080fd5b506106ea60048036038101906106e591906130c5565b611343565b005b3480156106f857600080fd5b50610713600480360381019061070e9190612d85565b611360565b005b34801561072157600080fd5b5061073c60048036038101906107379190613148565b61145d565b005b34801561074a57600080fd5b5061076560048036038101906107609190612d85565b6114c9565b6040516107729190612d2d565b60405180910390f35b61079560048036038101906107909190613148565b611532565b005b3480156107a357600080fd5b506107be60048036038101906107b99190613188565b61161a565b6040516107cb9190612c82565b60405180910390f35b3480156107e057600080fd5b506107fb60048036038101906107f69190612ef7565b6116ae565b005b60007f780e9d63000000000000000000000000000000000000000000000000000000007bffffffffffffffffffffffffffffffffffffffffffffffffffffffff1916827bffffffffffffffffffffffffffffffffffffffffffffffffffffffff19161480610870575061086f82611734565b5b9050919050565b606060008054610886906131f7565b80601f01602080910402602001604051908101604052809291908181526020018280546108b2906131f7565b80156108ff5780601f106108d4576101008083540402835291602001916108ff565b820191906000526020600020905b8154815290600101906020018083116108e257829003601f168201915b5050505050905090565b600061091482611816565b5061091e8261189e565b9050919050565b61093782826109326118db565b6118e3565b5050565b600c546109473361103f565b826109529190613257565b1115610993576040517f08c379a000000000000000000000000000000000000000000000000000000000815260040161098a906132fd565b60405180910390fd5b8060106000808152602001908152602001600020546109b2919061331d565b3410156109f4576040517f08c379a00000000000000000000000000000000000000000000000000000000081526004016109eb906133d1565b60405180910390fd5b600080600090505b828160ff161015610a9e5760006103e8423384604051602001610a219392919061349d565b6040516020818303038152906040528051906020012060001c610a449190613509565b905060018103610a575760019250610a81565b600a8111610a685760029250610a80565b6101e98111610a7a5760039250610a7f565b600492505b5b5b610a8a83610f53565b508080610a969061353a565b9150506109fc565b505050565b6000600880549050905090565b6000610abb826118f5565b610afa576040517f08c379a0000000000000000000000000000000000000000000000000000000008152600401610af1906135af565b60405180910390fd5b60116000838152602001908152602001600020549050919050565b600073ffffffffffffffffffffffffffffffffffffffff168273ffffffffffffffffffffffffffffffffffffffff1603610b875760006040517f64a0ae92000000000000000000000000000000000000000000000000000000008152600401610b7e9190612df3565b60405180910390fd5b6000610b9b8383610b966118db565b61193c565b90508373ffffffffffffffffffffffffffffffffffffffff168173ffffffffffffffffffffffffffffffffffffffff1614610c11578382826040517f64283d7b000000000000000000000000000000000000000000000000000000008152600401610c08939291906135cf565b60405180910390fd5b50505050565b6000610c228361103f565b8210610c675782826040517fa57d13dc000000000000000000000000000000000000000000000000000000008152600401610c5e929190613606565b60405180910390fd5b600660008473ffffffffffffffffffffffffffffffffffffffff1673ffffffffffffffffffffffffffffffffffffffff168152602001908152602001600020600083815260200190815260200160002054905092915050565b610cc8611a59565b80600d8190555050565b610cda611a59565b610ce261117f565b73ffffffffffffffffffffffffffffffffffffffff166108fc479081150290604051600060405180830381858888f19350505050158015610d27573d6000803e3d6000fd5b50565b610d4583838360405180602001604052806000815250611343565b505050565b6060610d55826118f5565b610d94576040517f08c379a0000000000000000000000000000000000000000000000000000000008152600401610d8b906135af565b60405180910390fd5b6000600f600084815260200190815260200160002054905060018103610df2576040518060400160405280600781526020017f4469616d6f6e6400000000000000000000000000000000000000000000000000815250915050610ed8565b60028103610e38576040518060400160405280600481526020017f476f6c6400000000000000000000000000000000000000000000000000000000815250915050610ed8565b60038103610e7e576040518060400160405280600681526020017f53696c7665720000000000000000000000000000000000000000000000000000815250915050610ed8565b60048103610ec4576040518060400160405280600681526020017f42726f6e7a650000000000000000000000000000000000000000000000000000815250915050610ed8565b604051806020016040528060008152509150505b919050565b6000610ee7610aa3565b8210610f2d576000826040517fa57d13dc000000000000000000000000000000000000000000000000000000008152600401610f24929190613606565b60405180910390fd5b60088281548110610f4157610f4061362f565b5b90600052602060002001549050919050565b600d54600b5410610f99576040517f08c379a0000000000000000000000000000000000000000000000000000000008152600401610f90906136aa565b60405180910390fd5b600c54610fa53361103f565b1115610fe6576040517f08c379a0000000000000000000000000000000000000000000000000000000008152600401610fdd9061373c565b60405180910390fd5b6001600b6000828254610ff99190613257565b925050819055506000600b5490506110113382611ae0565b81600f6000838152602001908152602001600020819055505050565b600061103882611816565b9050919050565b60008073ffffffffffffffffffffffffffffffffffffffff168273ffffffffffffffffffffffffffffffffffffffff16036110b25760006040517f89c62b640000000000000000000000000000000000000000000000000000000081526004016110a99190612df3565b60405180910390fd5b600360008373ffffffffffffffffffffffffffffffffffffffff1673ffffffffffffffffffffffffffffffffffffffff168152602001908152602001600020549050919050565b611101611a59565b61110b6000611afe565b565b611115611a59565b600d548110611159576040517f08c379a0000000000000000000000000000000000000000000000000000000008152600401611150906137a8565b60405180910390fd5b80600c8190555050565b600061116d610aa3565b600d5461117a91906137c8565b905090565b6000600a60009054906101000a900473ffffffffffffffffffffffffffffffffffffffff16905090565b6000600d54905090565b6111bb611a59565b80600e819055506002600e546111d1919061331d565b60106000808152602001908152602001600020819055506005600e546111f7919061331d565b6010600060018152602001908152602001600020819055506003600e5461121e919061331d565b6010600060028152602001908152602001600020819055506002600e54611245919061331d565b6010600060038152602001908152602001600020819055506001600e5461126c919061331d565b60106000600481526020019081526020016000208190555050565b606060018054611296906131f7565b80601f01602080910402602001604051908101604052809291908181526020018280546112c2906131f7565b801561130f5780601f106112e45761010080835404028352916020019161130f565b820191906000526020600020905b8154815290600101906020018083116112f257829003601f168201915b5050505050905090565b6000600e54905090565b6000600c54905090565b61133f6113386118db565b8383611bc4565b5050565b61134e848484610b15565b61135a84848484611d33565b50505050565b3373ffffffffffffffffffffffffffffffffffffffff166113808261102d565b73ffffffffffffffffffffffffffffffffffffffff1614806113d557503373ffffffffffffffffffffffffffffffffffffffff166113bd82610909565b73ffffffffffffffffffffffffffffffffffffffff16145b8061141257506113e361117f565b73ffffffffffffffffffffffffffffffffffffffff163373ffffffffffffffffffffffffffffffffffffffff16145b611451576040517f08c379a000000000000000000000000000000000000000000000000000000000815260040161144890613848565b60405180910390fd5b61145a81611eea565b50565b611465611a59565b61146e826118f5565b6114ad576040517f08c379a00000000000000000000000000000000000000000000000000000000081526004016114a4906135af565b60405180910390fd5b8060116000848152602001908152602001600020819055505050565b60606114d482611816565b5060006114df611f70565b905060008151116114ff576040518060200160405280600081525061152a565b8061150984611f87565b60405160200161151a9291906138a4565b6040516020818303038152906040525b915050919050565b600c5461153e3361103f565b826115499190613257565b111561158a576040517f08c379a0000000000000000000000000000000000000000000000000000000008152600401611581906132fd565b60405180910390fd5b8060106000848152602001908152602001600020546115a9919061331d565b3410156115eb576040517f08c379a00000000000000000000000000000000000000000000000000000000081526004016115e29061393a565b60405180910390fd5b60005b818160ff1610156116155761160283610f53565b808061160d9061353a565b9150506115ee565b505050565b6000600560008473ffffffffffffffffffffffffffffffffffffffff1673ffffffffffffffffffffffffffffffffffffffff16815260200190815260200160002060008373ffffffffffffffffffffffffffffffffffffffff1673ffffffffffffffffffffffffffffffffffffffff16815260200190815260200160002060009054906101000a900460ff16905092915050565b6116b6611a59565b600073ffffffffffffffffffffffffffffffffffffffff168173ffffffffffffffffffffffffffffffffffffffff16036117285760006040517f1e4fbdf700000000000000000000000000000000000000000000000000000000815260040161171f9190612df3565b60405180910390fd5b61173181611afe565b50565b60007f80ac58cd000000000000000000000000000000000000000000000000000000007bffffffffffffffffffffffffffffffffffffffffffffffffffffffff1916827bffffffffffffffffffffffffffffffffffffffffffffffffffffffff191614806117ff57507f5b5e139f000000000000000000000000000000000000000000000000000000007bffffffffffffffffffffffffffffffffffffffffffffffffffffffff1916827bffffffffffffffffffffffffffffffffffffffffffffffffffffffff1916145b8061180f575061180e82612055565b5b9050919050565b600080611822836120bf565b9050600073ffffffffffffffffffffffffffffffffffffffff168173ffffffffffffffffffffffffffffffffffffffff160361189557826040517f7e27328900000000000000000000000000000000000000000000000000000000815260040161188c9190612e89565b60405180910390fd5b80915050919050565b60006004600083815260200190815260200160002060009054906101000a900473ffffffffffffffffffffffffffffffffffffffff169050919050565b600033905090565b6118f083838360016120fc565b505050565b6000806119018361102d565b9050600073ffffffffffffffffffffffffffffffffffffffff168173ffffffffffffffffffffffffffffffffffffffff161415915050919050565b60008061194a8585856122c1565b9050600073ffffffffffffffffffffffffffffffffffffffff168173ffffffffffffffffffffffffffffffffffffffff160361198e57611989846124db565b6119cd565b8473ffffffffffffffffffffffffffffffffffffffff168173ffffffffffffffffffffffffffffffffffffffff16146119cc576119cb8185612524565b5b5b600073ffffffffffffffffffffffffffffffffffffffff168573ffffffffffffffffffffffffffffffffffffffff1603611a0f57611a0a84612685565b611a4e565b8473ffffffffffffffffffffffffffffffffffffffff168173ffffffffffffffffffffffffffffffffffffffff1614611a4d57611a4c8585612756565b5b5b809150509392505050565b611a616118db565b73ffffffffffffffffffffffffffffffffffffffff16611a7f61117f565b73ffffffffffffffffffffffffffffffffffffffff1614611ade57611aa26118db565b6040517f118cdaa7000000000000000000000000000000000000000000000000000000008152600401611ad59190612df3565b60405180910390fd5b565b611afa8282604051806020016040528060008152506127e1565b5050565b6000600a60009054906101000a900473ffffffffffffffffffffffffffffffffffffffff16905081600a60006101000a81548173ffffffffffffffffffffffffffffffffffffffff021916908373ffffffffffffffffffffffffffffffffffffffff1602179055508173ffffffffffffffffffffffffffffffffffffffff168173ffffffffffffffffffffffffffffffffffffffff167f8be0079c531659141344cd1fd0a4f28419497f9722a3daafe3b4186f6b6457e060405160405180910390a35050565b600073ffffffffffffffffffffffffffffffffffffffff168273ffffffffffffffffffffffffffffffffffffffff1603611c3557816040517f5b08ba18000000000000000000000000000000000000000000000000000000008152600401611c2c9190612df3565b60405180910390fd5b80600560008573ffffffffffffffffffffffffffffffffffffffff1673ffffffffffffffffffffffffffffffffffffffff16815260200190815260200160002060008473ffffffffffffffffffffffffffffffffffffffff1673ffffffffffffffffffffffffffffffffffffffff16815260200190815260200160002060006101000a81548160ff0219169083151502179055508173ffffffffffffffffffffffffffffffffffffffff168373ffffffffffffffffffffffffffffffffffffffff167f17307eab39ab6107e8899845ad3d59bd9653f200f220920489ca2b5937696c3183604051611d269190612c82565b60405180910390a3505050565b60008373ffffffffffffffffffffffffffffffffffffffff163b1115611ee4578273ffffffffffffffffffffffffffffffffffffffff1663150b7a02611d776118db565b8685856040518563ffffffff1660e01b8152600401611d9994939291906139af565b6020604051808303816000875af1925050508015611dd557506040513d601f19601f82011682018060405250810190611dd29190613a10565b60015b611e59573d8060008114611e05576040519150601f19603f3d011682016040523d82523d6000602084013e611e0a565b606091505b506000815103611e5157836040517f64a0ae92000000000000000000000000000000000000000000000000000000008152600401611e489190612df3565b60405180910390fd5b805181602001fd5b63150b7a0260e01b7bffffffffffffffffffffffffffffffffffffffffffffffffffffffff1916817bffffffffffffffffffffffffffffffffffffffffffffffffffffffff191614611ee257836040517f64a0ae92000000000000000000000000000000000000000000000000000000008152600401611ed99190612df3565b60405180910390fd5b505b50505050565b6000611ef9600083600061193c565b9050600073ffffffffffffffffffffffffffffffffffffffff168173ffffffffffffffffffffffffffffffffffffffff1603611f6c57816040517f7e273289000000000000000000000000000000000000000000000000000000008152600401611f639190612e89565b60405180910390fd5b5050565b606060405180602001604052806000815250905090565b606060006001611f96846127fd565b01905060008167ffffffffffffffff811115611fb557611fb4612f9a565b5b6040519080825280601f01601f191660200182016040528015611fe75781602001600182028036833780820191505090505b509050600082602001820190505b60011561204a578080600190039150507f3031323334353637383961626364656600000000000000000000000000000000600a86061a8153600a858161203e5761203d6134da565b5b04945060008503611ff5575b819350505050919050565b60007f01ffc9a7000000000000000000000000000000000000000000000000000000007bffffffffffffffffffffffffffffffffffffffffffffffffffffffff1916827bffffffffffffffffffffffffffffffffffffffffffffffffffffffff1916149050919050565b60006002600083815260200190815260200160002060009054906101000a900473ffffffffffffffffffffffffffffffffffffffff169050919050565b80806121355750600073ffffffffffffffffffffffffffffffffffffffff168273ffffffffffffffffffffffffffffffffffffffff1614155b1561226957600061214584611816565b9050600073ffffffffffffffffffffffffffffffffffffffff168373ffffffffffffffffffffffffffffffffffffffff16141580156121b057508273ffffffffffffffffffffffffffffffffffffffff168173ffffffffffffffffffffffffffffffffffffffff1614155b80156121c357506121c1818461161a565b155b1561220557826040517fa9fbf51f0000000000000000000000000000000000000000000000000000000081526004016121fc9190612df3565b60405180910390fd5b811561226757838573ffffffffffffffffffffffffffffffffffffffff168273ffffffffffffffffffffffffffffffffffffffff167f8c5be1e5ebec7d5bd14f71427d1e84f3dd0314c0f7b2291e5b200ac8c7c3b92560405160405180910390a45b505b836004600085815260200190815260200160002060006101000a81548173ffffffffffffffffffffffffffffffffffffffff021916908373ffffffffffffffffffffffffffffffffffffffff16021790555050505050565b6000806122cd846120bf565b9050600073ffffffffffffffffffffffffffffffffffffffff168373ffffffffffffffffffffffffffffffffffffffff161461230f5761230e818486612950565b5b600073ffffffffffffffffffffffffffffffffffffffff168173ffffffffffffffffffffffffffffffffffffffff16146123a0576123516000856000806120fc565b6001600360008373ffffffffffffffffffffffffffffffffffffffff1673ffffffffffffffffffffffffffffffffffffffff168152602001908152602001600020600082825403925050819055505b600073ffffffffffffffffffffffffffffffffffffffff168573ffffffffffffffffffffffffffffffffffffffff1614612423576001600360008773ffffffffffffffffffffffffffffffffffffffff1673ffffffffffffffffffffffffffffffffffffffff168152602001908152602001600020600082825401925050819055505b846002600086815260200190815260200160002060006101000a81548173ffffffffffffffffffffffffffffffffffffffff021916908373ffffffffffffffffffffffffffffffffffffffff160217905550838573ffffffffffffffffffffffffffffffffffffffff168273ffffffffffffffffffffffffffffffffffffffff167fddf252ad1be2c89b69c2b068fc378daa952ba7f163c4a11628f55a4df523b3ef60405160405180910390a4809150509392505050565b6008805490506009600083815260200190815260200160002081905550600881908060018154018082558091505060019003906000526020600020016000909190919091505550565b600061252f8361103f565b9050600060076000848152602001908152602001600020549050818114612614576000600660008673ffffffffffffffffffffffffffffffffffffffff1673ffffffffffffffffffffffffffffffffffffffff168152602001908152602001600020600084815260200190815260200160002054905080600660008773ffffffffffffffffffffffffffffffffffffffff1673ffffffffffffffffffffffffffffffffffffffff168152602001908152602001600020600084815260200190815260200160002081905550816007600083815260200190815260200160002081905550505b6007600084815260200190815260200160002060009055600660008573ffffffffffffffffffffffffffffffffffffffff1673ffffffffffffffffffffffffffffffffffffffff16815260200190815260200160002060008381526020019081526020016000206000905550505050565b6000600160088054905061269991906137c8565b90506000600960008481526020019081526020016000205490506000600883815481106126c9576126c861362f565b5b9060005260206000200154905080600883815481106126eb576126ea61362f565b5b90600052602060002001819055508160096000838152602001908152602001600020819055506009600085815260200190815260200160002060009055600880548061273a57612739613a3d565b5b6001900381819060005260206000200160009055905550505050565b600060016127638461103f565b61276d91906137c8565b905081600660008573ffffffffffffffffffffffffffffffffffffffff1673ffffffffffffffffffffffffffffffffffffffff168152602001908152602001600020600083815260200190815260200160002081905550806007600084815260200190815260200160002081905550505050565b6127eb8383612a14565b6127f86000848484611d33565b505050565b600080600090507a184f03e93ff9f4daa797ed6e38ed64bf6a1f010000000000000000831061285b577a184f03e93ff9f4daa797ed6e38ed64bf6a1f0100000000000000008381612851576128506134da565b5b0492506040810190505b6d04ee2d6d415b85acef81000000008310612898576d04ee2d6d415b85acef8100000000838161288e5761288d6134da565b5b0492506020810190505b662386f26fc1000083106128c757662386f26fc1000083816128bd576128bc6134da565b5b0492506010810190505b6305f5e10083106128f0576305f5e10083816128e6576128e56134da565b5b0492506008810190505b612710831061291557612710838161290b5761290a6134da565b5b0492506004810190505b60648310612938576064838161292e5761292d6134da565b5b0492506002810190505b600a8310612947576001810190505b80915050919050565b61295b838383612b0d565b612a0f57600073ffffffffffffffffffffffffffffffffffffffff168373ffffffffffffffffffffffffffffffffffffffff16036129d057806040517f7e2732890000000000000000000000000000000000000000000000000000000081526004016129c79190612e89565b60405180910390fd5b81816040517f177e802f000000000000000000000000000000000000000000000000000000008152600401612a06929190613606565b60405180910390fd5b505050565b600073ffffffffffffffffffffffffffffffffffffffff168273ffffffffffffffffffffffffffffffffffffffff1603612a865760006040517f64a0ae92000000000000000000000000000000000000000000000000000000008152600401612a7d9190612df3565b60405180910390fd5b6000612a948383600061193c565b9050600073ffffffffffffffffffffffffffffffffffffffff168173ffffffffffffffffffffffffffffffffffffffff1614612b085760006040517f73c6ac6e000000000000000000000000000000000000000000000000000000008152600401612aff9190612df3565b60405180910390fd5b505050565b60008073ffffffffffffffffffffffffffffffffffffffff168373ffffffffffffffffffffffffffffffffffffffff1614158015612bc557508273ffffffffffffffffffffffffffffffffffffffff168473ffffffffffffffffffffffffffffffffffffffff161480612b865750612b85848461161a565b5b80612bc457508273ffffffffffffffffffffffffffffffffffffffff16612bac8361189e565b73ffffffffffffffffffffffffffffffffffffffff16145b5b90509392505050565b6000604051905090565b600080fd5b600080fd5b60007fffffffff0000000000000000000000000000000000000000000000000000000082169050919050565b612c1781612be2565b8114612c2257600080fd5b50565b600081359050612c3481612c0e565b92915050565b600060208284031215612c5057612c4f612bd8565b5b6000612c5e84828501612c25565b91505092915050565b60008115159050919050565b612c7c81612c67565b82525050565b6000602082019050612c976000830184612c73565b92915050565b600081519050919050565b600082825260208201905092915050565b60005b83811015612cd7578082015181840152602081019050612cbc565b60008484015250505050565b6000601f19601f8301169050919050565b6000612cff82612c9d565b612d098185612ca8565b9350612d19818560208601612cb9565b612d2281612ce3565b840191505092915050565b60006020820190508181036000830152612d478184612cf4565b905092915050565b6000819050919050565b612d6281612d4f565b8114612d6d57600080fd5b50565b600081359050612d7f81612d59565b92915050565b600060208284031215612d9b57612d9a612bd8565b5b6000612da984828501612d70565b91505092915050565b600073ffffffffffffffffffffffffffffffffffffffff82169050919050565b6000612ddd82612db2565b9050919050565b612ded81612dd2565b82525050565b6000602082019050612e086000830184612de4565b92915050565b612e1781612dd2565b8114612e2257600080fd5b50565b600081359050612e3481612e0e565b92915050565b60008060408385031215612e5157612e50612bd8565b5b6000612e5f85828601612e25565b9250506020612e7085828601612d70565b9150509250929050565b612e8381612d4f565b82525050565b6000602082019050612e9e6000830184612e7a565b92915050565b600080600060608486031215612ebd57612ebc612bd8565b5b6000612ecb86828701612e25565b9350506020612edc86828701612e25565b9250506040612eed86828701612d70565b9150509250925092565b600060208284031215612f0d57612f0c612bd8565b5b6000612f1b84828501612e25565b91505092915050565b612f2d81612c67565b8114612f3857600080fd5b50565b600081359050612f4a81612f24565b92915050565b60008060408385031215612f6757612f66612bd8565b5b6000612f7585828601612e25565b9250506020612f8685828601612f3b565b9150509250929050565b600080fd5b600080fd5b7f4e487b7100000000000000000000000000000000000000000000000000000000600052604160045260246000fd5b612fd282612ce3565b810181811067ffffffffffffffff82111715612ff157612ff0612f9a565b5b80604052505050565b6000613004612bce565b90506130108282612fc9565b919050565b600067ffffffffffffffff8211156130305761302f612f9a565b5b61303982612ce3565b9050602081019050919050565b82818337600083830152505050565b600061306861306384613015565b612ffa565b90508281526020810184848401111561308457613083612f95565b5b61308f848285613046565b509392505050565b600082601f8301126130ac576130ab612f90565b5b81356130bc848260208601613055565b91505092915050565b600080600080608085870312156130df576130de612bd8565b5b60006130ed87828801612e25565b94505060206130fe87828801612e25565b935050604061310f87828801612d70565b925050606085013567ffffffffffffffff8111156131305761312f612bdd565b5b61313c87828801613097565b91505092959194509250565b6000806040838503121561315f5761315e612bd8565b5b600061316d85828601612d70565b925050602061317e85828601612d70565b9150509250929050565b6000806040838503121561319f5761319e612bd8565b5b60006131ad85828601612e25565b92505060206131be85828601612e25565b9150509250929050565b7f4e487b7100000000000000000000000000000000000000000000000000000000600052602260045260246000fd5b6000600282049050600182168061320f57607f821691505b602082108103613222576132216131c8565b5b50919050565b7f4e487b7100000000000000000000000000000000000000000000000000000000600052601160045260246000fd5b600061326282612d4f565b915061326d83612d4f565b925082820190508082111561328557613284613228565b5b92915050565b7f4f766572206d6178696d756e206c696d697420666f7220616e206163636f756e60008201527f7400000000000000000000000000000000000000000000000000000000000000602082015250565b60006132e7602183612ca8565b91506132f28261328b565b604082019050919050565b60006020820190508181036000830152613316816132da565b9050919050565b600061332882612d4f565b915061333383612d4f565b925082820261334181612d4f565b9150828204841483151761335857613357613228565b5b5092915050565b7f4e6f742073756666696369656e7420657468657220666f722072616e646f6d2060008201527f4e4654206d696e74696e67000000000000000000000000000000000000000000602082015250565b60006133bb602b83612ca8565b91506133c68261335f565b604082019050919050565b600060208201905081810360008301526133ea816133ae565b9050919050565b6000819050919050565b61340c61340782612d4f565b6133f1565b82525050565b60008160601b9050919050565b600061342a82613412565b9050919050565b600061343c8261341f565b9050919050565b61345461344f82612dd2565b613431565b82525050565b600060ff82169050919050565b60008160f81b9050919050565b600061347f82613467565b9050919050565b6134976134928261345a565b613474565b82525050565b60006134a982866133fb565b6020820191506134b98285613443565b6014820191506134c98284613486565b600182019150819050949350505050565b7f4e487b7100000000000000000000000000000000000000000000000000000000600052601260045260246000fd5b600061351482612d4f565b915061351f83612d4f565b92508261352f5761352e6134da565b5b828206905092915050565b60006135458261345a565b915060ff820361355857613557613228565b5b600182019050919050565b7f546f6b656e20646f6573206e6f74206578697374000000000000000000000000600082015250565b6000613599601483612ca8565b91506135a482613563565b602082019050919050565b600060208201905081810360008301526135c88161358c565b9050919050565b60006060820190506135e46000830186612de4565b6135f16020830185612e7a565b6135fe6040830184612de4565b949350505050565b600060408201905061361b6000830185612de4565b6136286020830184612e7a565b9392505050565b7f4e487b7100000000000000000000000000000000000000000000000000000000600052603260045260246000fd5b7f4d6178696d756d206361726473206d696e746564000000000000000000000000600082015250565b6000613694601483612ca8565b915061369f8261365e565b602082019050919050565b600060208201905081810360008301526136c381613687565b9050919050565b7f4d6178696d756e206361726473206d696e74656420666f72207468652061636360008201527f6f756e7400000000000000000000000000000000000000000000000000000000602082015250565b6000613726602483612ca8565b9150613731826136ca565b604082019050919050565b6000602082019050818103600083015261375581613719565b9050919050565b7f556e76616c696420636f756e74206e756d626572000000000000000000000000600082015250565b6000613792601483612ca8565b915061379d8261375c565b602082019050919050565b600060208201905081810360008301526137c181613785565b9050919050565b60006137d382612d4f565b91506137de83612d4f565b92508282039050818111156137f6576137f5613228565b5b92915050565b7f43616c6c6572206973206e6f74206f776e6572206e6f7220617070726f766564600082015250565b6000613832602083612ca8565b915061383d826137fc565b602082019050919050565b6000602082019050818103600083015261386181613825565b9050919050565b600081905092915050565b600061387e82612c9d565b6138888185613868565b9350613898818560208601612cb9565b80840191505092915050565b60006138b08285613873565b91506138bc8284613873565b91508190509392505050565b7f4e6f742073756666696369656e7420657468657220666f72207370656369666960008201527f63204e4654206d696e74696e6700000000000000000000000000000000000000602082015250565b6000613924602d83612ca8565b915061392f826138c8565b604082019050919050565b6000602082019050818103600083015261395381613917565b9050919050565b600081519050919050565b600082825260208201905092915050565b60006139818261395a565b61398b8185613965565b935061399b818560208601612cb9565b6139a481612ce3565b840191505092915050565b60006080820190506139c46000830187612de4565b6139d16020830186612de4565b6139de6040830185612e7a565b81810360608301526139f08184613976565b905095945050505050565b600081519050613a0a81612c0e565b92915050565b600060208284031215613a2657613a25612bd8565b5b6000613a34848285016139fb565b91505092915050565b7f4e487b7100000000000000000000000000000000000000000000000000000000600052603160045260246000fdfea264697066735822122055594ab3a38923a29e4172e70395380aec3514ec5a26ddb343288b75e1252d5f64736f6c63430008140033",
  "linkReferences": {},
  "deployedLinkReferences": {}
}