{
  "_format": "hh-sol-artifact-1",
  "contractName": "SmartWager",
  "sourceName": "contracts/SmartWager.sol",
  "abi": [
    {
      "inputs": [],
      "stateMutability": "nonpayable",
      "type": "constructor"
    },
    {
      "inputs": [],
      "name": "ERC721EnumerableForbiddenBatchMint",
      "type": "error"
    },
    {
      "inputs": [
        {
          "internalType": "address",
          "name": "sender",
          "type": "address"
        },
        {
          "internalType": "uint256",
          "name": "tokenId",
          "type": "uint256"
        },
        {
          "internalType": "address",
          "name": "owner",
          "type": "address"
        }
      ],
      "name": "ERC721IncorrectOwner",
      "type": "error"
    },
    {
      "inputs": [
        {
          "internalType": "address",
          "name": "operator",
          "type": "address"
        },
        {
          "internalType": "uint256",
          "name": "tokenId",
          "type": "uint256"
        }
      ],
      "name": "ERC721InsufficientApproval",
      "type": "error"
    },
    {
      "inputs": [
        {
          "internalType": "address",
          "name": "approver",
          "type": "address"
        }
      ],
      "name": "ERC721InvalidApprover",
      "type": "error"
    },
    {
      "inputs": [
        {
          "internalType": "address",
          "name": "operator",
          "type": "address"
        }
      ],
      "name": "ERC721InvalidOperator",
      "type": "error"
    },
    {
      "inputs": [
        {
          "internalType": "address",
          "name": "owner",
          "type": "address"
        }
      ],
      "name": "ERC721InvalidOwner",
      "type": "error"
    },
    {
      "inputs": [
        {
          "internalType": "address",
          "name": "receiver",
          "type": "address"
        }
      ],
      "name": "ERC721InvalidReceiver",
      "type": "error"
    },
    {
      "inputs": [
        {
          "internalType": "address",
          "name": "sender",
          "type": "address"
        }
      ],
      "name": "ERC721InvalidSender",
      "type": "error"
    },
    {
      "inputs": [
        {
          "internalType": "uint256",
          "name": "tokenId",
          "type": "uint256"
        }
      ],
      "name": "ERC721NonexistentToken",
      "type": "error"
    },
    {
      "inputs": [
        {
          "internalType": "address",
          "name": "owner",
          "type": "address"
        },
        {
          "internalType": "uint256",
          "name": "index",
          "type": "uint256"
        }
      ],
      "name": "ERC721OutOfBoundsIndex",
      "type": "error"
    },
    {
      "inputs": [
        {
          "internalType": "address",
          "name": "owner",
          "type": "address"
        }
      ],
      "name": "OwnableInvalidOwner",
      "type": "error"
    },
    {
      "inputs": [
        {
          "internalType": "address",
          "name": "account",
          "type": "address"
        }
      ],
      "name": "OwnableUnauthorizedAccount",
      "type": "error"
    },
    {
      "anonymous": false,
      "inputs": [
        {
          "indexed": true,
          "internalType": "address",
          "name": "owner",
          "type": "address"
        },
        {
          "indexed": true,
          "internalType": "address",
          "name": "approved",
          "type": "address"
        },
        {
          "indexed": true,
          "internalType": "uint256",
          "name": "tokenId",
          "type": "uint256"
        }
      ],
      "name": "Approval",
      "type": "event"
    },
    {
      "anonymous": false,
      "inputs": [
        {
          "indexed": true,
          "internalType": "address",
          "name": "owner",
          "type": "address"
        },
        {
          "indexed": true,
          "internalType": "address",
          "name": "operator",
          "type": "address"
        },
        {
          "indexed": false,
          "internalType": "bool",
          "name": "approved",
          "type": "bool"
        }
      ],
      "name": "ApprovalForAll",
      "type": "event"
    },
    {
      "anonymous": false,
      "inputs": [
        {
          "indexed": true,
          "internalType": "address",
          "name": "previousOwner",
          "type": "address"
        },
        {
          "indexed": true,
          "internalType": "address",
          "name": "newOwner",
          "type": "address"
        }
      ],
      "name": "OwnershipTransferred",
      "type": "event"
    },
    {
      "anonymous": false,
      "inputs": [
        {
          "indexed": true,
          "internalType": "address",
          "name": "from",
          "type": "address"
        },
        {
          "indexed": true,
          "internalType": "address",
          "name": "to",
          "type": "address"
        },
        {
          "indexed": true,
          "internalType": "uint256",
          "name": "tokenId",
          "type": "uint256"
        }
      ],
      "name": "Transfer",
      "type": "event"
    },
    {
      "inputs": [
        {
          "internalType": "address",
          "name": "to",
          "type": "address"
        },
        {
          "internalType": "uint256",
          "name": "tokenId",
          "type": "uint256"
        }
      ],
      "name": "approve",
      "outputs": [],
      "stateMutability": "nonpayable",
      "type": "function"
    },
    {
      "inputs": [
        {
          "internalType": "address",
          "name": "owner",
          "type": "address"
        }
      ],
      "name": "balanceOf",
      "outputs": [
        {
          "internalType": "uint256",
          "name": "",
          "type": "uint256"
        }
      ],
      "stateMutability": "view",
      "type": "function"
    },
    {
      "inputs": [
        {
          "internalType": "uint256",
          "name": "tokenId",
          "type": "uint256"
        }
      ],
      "name": "burnCard",
      "outputs": [],
      "stateMutability": "nonpayable",
      "type": "function"
    },
    {
      "inputs": [
        {
          "internalType": "uint256",
          "name": "tokenId",
          "type": "uint256"
        }
      ],
      "name": "getApproved",
      "outputs": [
        {
          "internalType": "address",
          "name": "",
          "type": "address"
        }
      ],
      "stateMutability": "view",
      "type": "function"
    },
    {
      "inputs": [
        {
          "internalType": "uint256",
          "name": "tokenId",
          "type": "uint256"
        }
      ],
      "name": "getCardExpiration",
      "outputs": [
        {
          "internalType": "uint256",
          "name": "",
          "type": "uint256"
        }
      ],
      "stateMutability": "view",
      "type": "function"
    },
    {
      "inputs": [],
      "name": "getCardLImitPerAccount",
      "outputs": [
        {
          "internalType": "uint256",
          "name": "",
          "type": "uint256"
        }
      ],
      "stateMutability": "view",
      "type": "function"
    },
    {
      "inputs": [
        {
          "internalType": "uint256",
          "name": "tokenId",
          "type": "uint256"
        }
      ],
      "name": "getCardType",
      "outputs": [
        {
          "internalType": "string",
          "name": "",
          "type": "string"
        }
      ],
      "stateMutability": "view",
      "type": "function"
    },
    {
      "inputs": [],
      "name": "getPrice",
      "outputs": [
        {
          "internalType": "uint256",
          "name": "",
          "type": "uint256"
        }
      ],
      "stateMutability": "view",
      "type": "function"
    },
    {
      "inputs": [],
      "name": "getRemain",
      "outputs": [
        {
          "internalType": "uint256",
          "name": "",
          "type": "uint256"
        }
      ],
      "stateMutability": "view",
      "type": "function"
    },
    {
      "inputs": [],
      "name": "getSupplyLimit",
      "outputs": [
        {
          "internalType": "uint256",
          "name": "",
          "type": "uint256"
        }
      ],
      "stateMutability": "view",
      "type": "function"
    },
    {
      "inputs": [
        {
          "internalType": "address",
          "name": "owner",
          "type": "address"
        },
        {
          "internalType": "address",
          "name": "operator",
          "type": "address"
        }
      ],
      "name": "isApprovedForAll",
      "outputs": [
        {
          "internalType": "bool",
          "name": "",
          "type": "bool"
        }
      ],
      "stateMutability": "view",
      "type": "function"
    },
    {
      "inputs": [
        {
          "internalType": "uint256",
          "name": "cardType",
          "type": "uint256"
        },
        {
          "internalType": "uint256",
          "name": "cardEndTime",
          "type": "uint256"
        }
      ],
      "name": "mintCard",
      "outputs": [],
      "stateMutability": "nonpayable",
      "type": "function"
    },
    {
      "inputs": [],
      "name": "mintRandomCard",
      "outputs": [],
      "stateMutability": "payable",
      "type": "function"
    },
    {
      "inputs": [
        {
          "internalType": "uint256",
          "name": "cardType",
          "type": "uint256"
        }
      ],
      "name": "mintSpecificCard",
      "outputs": [],
      "stateMutability": "payable",
      "type": "function"
    },
    {
      "inputs": [],
      "name": "name",
      "outputs": [
        {
          "internalType": "string",
          "name": "",
          "type": "string"
        }
      ],
      "stateMutability": "view",
      "type": "function"
    },
    {
      "inputs": [],
      "name": "owner",
      "outputs": [
        {
          "internalType": "address",
          "name": "",
          "type": "address"
        }
      ],
      "stateMutability": "view",
      "type": "function"
    },
    {
      "inputs": [
        {
          "internalType": "uint256",
          "name": "tokenId",
          "type": "uint256"
        }
      ],
      "name": "ownerOf",
      "outputs": [
        {
          "internalType": "address",
          "name": "",
          "type": "address"
        }
      ],
      "stateMutability": "view",
      "type": "function"
    },
    {
      "inputs": [],
      "name": "renounceOwnership",
      "outputs": [],
      "stateMutability": "nonpayable",
      "type": "function"
    },
    {
      "inputs": [
        {
          "internalType": "address",
          "name": "from",
          "type": "address"
        },
        {
          "internalType": "address",
          "name": "to",
          "type": "address"
        },
        {
          "internalType": "uint256",
          "name": "tokenId",
          "type": "uint256"
        }
      ],
      "name": "safeTransferFrom",
      "outputs": [],
      "stateMutability": "nonpayable",
      "type": "function"
    },
    {
      "inputs": [
        {
          "internalType": "address",
          "name": "from",
          "type": "address"
        },
        {
          "internalType": "address",
          "name": "to",
          "type": "address"
        },
        {
          "internalType": "uint256",
          "name": "tokenId",
          "type": "uint256"
        },
        {
          "internalType": "bytes",
          "name": "data",
          "type": "bytes"
        }
      ],
      "name": "safeTransferFrom",
      "outputs": [],
      "stateMutability": "nonpayable",
      "type": "function"
    },
    {
      "inputs": [
        {
          "internalType": "address",
          "name": "operator",
          "type": "address"
        },
        {
          "internalType": "bool",
          "name": "approved",
          "type": "bool"
        }
      ],
      "name": "setApprovalForAll",
      "outputs": [],
      "stateMutability": "nonpayable",
      "type": "function"
    },
    {
      "inputs": [
        {
          "internalType": "uint256",
          "name": "tokenId",
          "type": "uint256"
        },
        {
          "internalType": "uint256",
          "name": "endTime",
          "type": "uint256"
        }
      ],
      "name": "setCardExpiration",
      "outputs": [],
      "stateMutability": "nonpayable",
      "type": "function"
    },
    {
      "inputs": [
        {
          "internalType": "uint256",
          "name": "count",
          "type": "uint256"
        }
      ],
      "name": "setCardLimitPerAccout",
      "outputs": [],
      "stateMutability": "nonpayable",
      "type": "function"
    },
    {
      "inputs": [
        {
          "internalType": "uint256",
          "name": "prc",
          "type": "uint256"
        }
      ],
      "name": "setPrice",
      "outputs": [],
      "stateMutability": "nonpayable",
      "type": "function"
    },
    {
      "inputs": [
        {
          "internalType": "uint256",
          "name": "limit",
          "type": "uint256"
        }
      ],
      "name": "setSupplyLimit",
      "outputs": [],
      "stateMutability": "nonpayable",
      "type": "function"
    },
    {
      "inputs": [
        {
          "internalType": "bytes4",
          "name": "interfaceId",
          "type": "bytes4"
        }
      ],
      "name": "supportsInterface",
      "outputs": [
        {
          "internalType": "bool",
          "name": "",
          "type": "bool"
        }
      ],
      "stateMutability": "view",
      "type": "function"
    },
    {
      "inputs": [],
      "name": "symbol",
      "outputs": [
        {
          "internalType": "string",
          "name": "",
          "type": "string"
        }
      ],
      "stateMutability": "view",
      "type": "function"
    },
    {
      "inputs": [
        {
          "internalType": "uint256",
          "name": "index",
          "type": "uint256"
        }
      ],
      "name": "tokenByIndex",
      "outputs": [
        {
          "internalType": "uint256",
          "name": "",
          "type": "uint256"
        }
      ],
      "stateMutability": "view",
      "type": "function"
    },
    {
      "inputs": [
        {
          "internalType": "address",
          "name": "owner",
          "type": "address"
        },
        {
          "internalType": "uint256",
          "name": "index",
          "type": "uint256"
        }
      ],
      "name": "tokenOfOwnerByIndex",
      "outputs": [
        {
          "internalType": "uint256",
          "name": "",
          "type": "uint256"
        }
      ],
      "stateMutability": "view",
      "type": "function"
    },
    {
      "inputs": [
        {
          "internalType": "uint256",
          "name": "tokenId",
          "type": "uint256"
        }
      ],
      "name": "tokenURI",
      "outputs": [
        {
          "internalType": "string",
          "name": "",
          "type": "string"
        }
      ],
      "stateMutability": "view",
      "type": "function"
    },
    {
      "inputs": [],
      "name": "totalSupply",
      "outputs": [
        {
          "internalType": "uint256",
          "name": "",
          "type": "uint256"
        }
      ],
      "stateMutability": "view",
      "type": "function"
    },
    {
      "inputs": [
        {
          "internalType": "address",
          "name": "from",
          "type": "address"
        },
        {
          "internalType": "address",
          "name": "to",
          "type": "address"
        },
        {
          "internalType": "uint256",
          "name": "tokenId",
          "type": "uint256"
        }
      ],
      "name": "transferFrom",
      "outputs": [],
      "stateMutability": "nonpayable",
      "type": "function"
    },
    {
      "inputs": [
        {
          "internalType": "address",
          "name": "newOwner",
          "type": "address"
        }
      ],
      "name": "transferOwnership",
      "outputs": [],
      "stateMutability": "nonpayable",
      "type": "function"
    },
    {
      "inputs": [],
      "name": "withdraw",
      "outputs": [],
      "stateMutability": "payable",
      "type": "function"
    }
  ],
  "bytecode": "0x60806040526000600b556005600c556103e8600d5567016345785d8a0000600e553480156200002d57600080fd5b50336040518060400160405280600b81526020017f536d6172742057616765720000000000000000000000000000000000000000008152506040518060400160405280600281526020017f53570000000000000000000000000000000000000000000000000000000000008152508160009081620000ac9190620005c4565b508060019081620000be9190620005c4565b505050600073ffffffffffffffffffffffffffffffffffffffff168173ffffffffffffffffffffffffffffffffffffffff1603620001365760006040517f1e4fbdf70000000000000000000000000000000000000000000000000000000081526004016200012d9190620006f0565b60405180910390fd5b62000147816200028460201b60201c565b506001600f60006001815260200190815260200160002081905550600a600f600060028152602001908152602001600020819055506101e9600f600060038152602001908152602001600020819055506101f4600f600060048152602001908152602001600020819055506002600e54620001c391906200073c565b60106000808152602001908152602001600020819055506005600e54620001eb91906200073c565b6010600060018152602001908152602001600020819055506003600e546200021491906200073c565b6010600060028152602001908152602001600020819055506002600e546200023d91906200073c565b6010600060038152602001908152602001600020819055506001600e546200026691906200073c565b60106000600481526020019081526020016000208190555062000787565b6000600a60009054906101000a900473ffffffffffffffffffffffffffffffffffffffff16905081600a60006101000a81548173ffffffffffffffffffffffffffffffffffffffff021916908373ffffffffffffffffffffffffffffffffffffffff1602179055508173ffffffffffffffffffffffffffffffffffffffff168173ffffffffffffffffffffffffffffffffffffffff167f8be0079c531659141344cd1fd0a4f28419497f9722a3daafe3b4186f6b6457e060405160405180910390a35050565b600081519050919050565b7f4e487b7100000000000000000000000000000000000000000000000000000000600052604160045260246000fd5b7f4e487b7100000000000000000000000000000000000000000000000000000000600052602260045260246000fd5b60006002820490506001821680620003cc57607f821691505b602082108103620003e257620003e162000384565b5b50919050565b60008190508160005260206000209050919050565b60006020601f8301049050919050565b600082821b905092915050565b6000600883026200044c7fffffffffffffffffffffffffffffffffffffffffffffffffffffffffffffffff826200040d565b6200045886836200040d565b95508019841693508086168417925050509392505050565b6000819050919050565b6000819050919050565b6000620004a56200049f620004998462000470565b6200047a565b62000470565b9050919050565b6000819050919050565b620004c18362000484565b620004d9620004d082620004ac565b8484546200041a565b825550505050565b600090565b620004f0620004e1565b620004fd818484620004b6565b505050565b5b81811015620005255762000519600082620004e6565b60018101905062000503565b5050565b601f82111562000574576200053e81620003e8565b6200054984620003fd565b8101602085101562000559578190505b620005716200056885620003fd565b83018262000502565b50505b505050565b600082821c905092915050565b6000620005996000198460080262000579565b1980831691505092915050565b6000620005b4838362000586565b9150826002028217905092915050565b620005cf826200034a565b67ffffffffffffffff811115620005eb57620005ea62000355565b5b620005f78254620003b3565b6200060482828562000529565b600060209050601f8311600181146200063c576000841562000627578287015190505b620006338582620005a6565b865550620006a3565b601f1984166200064c86620003e8565b60005b8281101562000676578489015182556001820191506020850194506020810190506200064f565b8683101562000696578489015162000692601f89168262000586565b8355505b6001600288020188555050505b505050505050565b600073ffffffffffffffffffffffffffffffffffffffff82169050919050565b6000620006d882620006ab565b9050919050565b620006ea81620006cb565b82525050565b6000602082019050620007076000830184620006df565b92915050565b7f4e487b7100000000000000000000000000000000000000000000000000000000600052601160045260246000fd5b6000620007498262000470565b9150620007568362000470565b9250828202620007668162000470565b9150828204841483151762000780576200077f6200070d565b5b5092915050565b6139f680620007976000396000f3fe6080604052600436106101f95760003560e01c8063715018a61161010d57806398d5fdca116100a0578063ba7e7d051161006f578063ba7e7d05146106f6578063c2200be91461071f578063c87b56dd14610748578063e985e9c514610785578063f2fde38b146107c2576101f9565b806398d5fdca1461064e5780639df2b60514610679578063a22cb465146106a4578063b88d4fde146106cd576101f9565b80638da5cb5b116100dc5780638da5cb5b146105a45780638f5ba1e8146105cf57806391b7f5ed146105fa57806395d89b4114610623576101f9565b8063715018a61461051d578063756ccc02146105345780637fc0f98b1461055d5780638c669be814610588576101f9565b806323b872dd1161019057806342842e0e1161015f57806342842e0e1461040057806348dccd56146104295780634f6ccce7146104665780636352211e146104a357806370a08231146104e0576101f9565b806323b872dd146103675780632f745c5914610390578063361fab25146103cd5780633ccfd60b146103f6576101f9565b80630e427f17116101cc5780630e427f17146102cc57806318160ddd146102f557806320ad530914610320578063239b541d1461032a576101f9565b806301ffc9a7146101fe57806306fdde031461023b578063081812fc14610266578063095ea7b3146102a3575b600080fd5b34801561020a57600080fd5b5061022560048036038101906102209190612c31565b6107eb565b6040516102329190612c79565b60405180910390f35b34801561024757600080fd5b50610250610865565b60405161025d9190612d24565b60405180910390f35b34801561027257600080fd5b5061028d60048036038101906102889190612d7c565b6108f7565b60405161029a9190612dea565b60405180910390f35b3480156102af57600080fd5b506102ca60048036038101906102c59190612e31565b610913565b005b3480156102d857600080fd5b506102f360048036038101906102ee9190612e71565b610929565b005b34801561030157600080fd5b5061030a610a1c565b6040516103179190612ec0565b60405180910390f35b610328610a29565b005b34801561033657600080fd5b50610351600480360381019061034c9190612d7c565b610b4d565b60405161035e9190612ec0565b60405180910390f35b34801561037357600080fd5b5061038e60048036038101906103899190612edb565b610bb2565b005b34801561039c57600080fd5b506103b760048036038101906103b29190612e31565b610cb4565b6040516103c49190612ec0565b60405180910390f35b3480156103d957600080fd5b506103f460048036038101906103ef9190612d7c565b610d5d565b005b6103fe610d6f565b005b34801561040c57600080fd5b5061042760048036038101906104229190612edb565b610dc7565b005b34801561043557600080fd5b50610450600480360381019061044b9190612d7c565b610de7565b60405161045d9190612d24565b60405180910390f35b34801561047257600080fd5b5061048d60048036038101906104889190612d7c565b610f7a565b60405161049a9190612ec0565b60405180910390f35b3480156104af57600080fd5b506104ca60048036038101906104c59190612d7c565b610ff0565b6040516104d79190612dea565b60405180910390f35b3480156104ec57600080fd5b5061050760048036038101906105029190612f2e565b611002565b6040516105149190612ec0565b60405180910390f35b34801561052957600080fd5b506105326110bc565b005b34801561054057600080fd5b5061055b60048036038101906105569190612d7c565b6110d0565b005b34801561056957600080fd5b50610572611126565b60405161057f9190612ec0565b60405180910390f35b6105a2600480360381019061059d9190612d7c565b611142565b005b3480156105b057600080fd5b506105b961125e565b6040516105c69190612dea565b60405180910390f35b3480156105db57600080fd5b506105e4611288565b6040516105f19190612ec0565b60405180910390f35b34801561060657600080fd5b50610621600480360381019061061c9190612d7c565b611292565b005b34801561062f57600080fd5b50610638611366565b6040516106459190612d24565b60405180910390f35b34801561065a57600080fd5b506106636113f8565b6040516106709190612ec0565b60405180910390f35b34801561068557600080fd5b5061068e611402565b60405161069b9190612ec0565b60405180910390f35b3480156106b057600080fd5b506106cb60048036038101906106c69190612f87565b61140c565b005b3480156106d957600080fd5b506106f460048036038101906106ef91906130fc565b611422565b005b34801561070257600080fd5b5061071d60048036038101906107189190612d7c565b61143f565b005b34801561072b57600080fd5b5061074660048036038101906107419190612e71565b61153c565b005b34801561075457600080fd5b5061076f600480360381019061076a9190612d7c565b6115a8565b60405161077c9190612d24565b60405180910390f35b34801561079157600080fd5b506107ac60048036038101906107a7919061317f565b611611565b6040516107b99190612c79565b60405180910390f35b3480156107ce57600080fd5b506107e960048036038101906107e49190612f2e565b6116a5565b005b60007f780e9d63000000000000000000000000000000000000000000000000000000007bffffffffffffffffffffffffffffffffffffffffffffffffffffffff1916827bffffffffffffffffffffffffffffffffffffffffffffffffffffffff1916148061085e575061085d8261172b565b5b9050919050565b606060008054610874906131ee565b80601f01602080910402602001604051908101604052809291908181526020018280546108a0906131ee565b80156108ed5780601f106108c2576101008083540402835291602001916108ed565b820191906000526020600020905b8154815290600101906020018083116108d057829003601f168201915b5050505050905090565b60006109028261180d565b5061090c82611895565b9050919050565b61092582826109206118d2565b6118da565b5050565b600d54600b541061096f576040517f08c379a00000000000000000000000000000000000000000000000000000000081526004016109669061326b565b60405180910390fd5b600c5461097b33611002565b10156109bc576040517f08c379a00000000000000000000000000000000000000000000000000000000081526004016109b3906132fd565b60405180910390fd5b6001600b60008282546109cf919061334c565b925050819055506000600b5490506109e733826118ec565b82600f600083815260200190815260200160002081905550816011600083815260200190815260200160002081905550505050565b6000600880549050905090565b6010600080815260200190815260200160002054341015610a7f576040517f08c379a0000000000000000000000000000000000000000000000000000000008152600401610a76906133f2565b60405180910390fd5b60006103e84233604051602001610a9792919061347b565b6040516020818303038152906040528051906020012060001c610aba91906134d6565b905060008060018303610ae15760019150629e340042610ada919061334c565b9050610b3e565b600a8311610b035760029150624f1a0042610afc919061334c565b9050610b3d565b6101e98311610b2657600391506220f58042610b1f919061334c565b9050610b3c565b60049150620d2f0042610b39919061334c565b90505b5b5b610b488282610929565b505050565b6000610b588261190a565b610b97576040517f08c379a0000000000000000000000000000000000000000000000000000000008152600401610b8e90613553565b60405180910390fd5b60116000838152602001908152602001600020549050919050565b600073ffffffffffffffffffffffffffffffffffffffff168273ffffffffffffffffffffffffffffffffffffffff1603610c245760006040517f64a0ae92000000000000000000000000000000000000000000000000000000008152600401610c1b9190612dea565b60405180910390fd5b6000610c388383610c336118d2565b611951565b90508373ffffffffffffffffffffffffffffffffffffffff168173ffffffffffffffffffffffffffffffffffffffff1614610cae578382826040517f64283d7b000000000000000000000000000000000000000000000000000000008152600401610ca593929190613573565b60405180910390fd5b50505050565b6000610cbf83611002565b8210610d045782826040517fa57d13dc000000000000000000000000000000000000000000000000000000008152600401610cfb9291906135aa565b60405180910390fd5b600660008473ffffffffffffffffffffffffffffffffffffffff1673ffffffffffffffffffffffffffffffffffffffff168152602001908152602001600020600083815260200190815260200160002054905092915050565b610d65611a6e565b80600d8190555050565b610d77611a6e565b610d7f61125e565b73ffffffffffffffffffffffffffffffffffffffff166108fc479081150290604051600060405180830381858888f19350505050158015610dc4573d6000803e3d6000fd5b50565b610de283838360405180602001604052806000815250611422565b505050565b6060610df28261190a565b610e31576040517f08c379a0000000000000000000000000000000000000000000000000000000008152600401610e2890613553565b60405180910390fd5b6000600f600084815260200190815260200160002054905060018103610e8f576040518060400160405280600781526020017f4469616d6f6e6400000000000000000000000000000000000000000000000000815250915050610f75565b60028103610ed5576040518060400160405280600481526020017f476f6c6400000000000000000000000000000000000000000000000000000000815250915050610f75565b60038103610f1b576040518060400160405280600681526020017f53696c7665720000000000000000000000000000000000000000000000000000815250915050610f75565b60048103610f61576040518060400160405280600681526020017f42726f6e7a650000000000000000000000000000000000000000000000000000815250915050610f75565b604051806020016040528060008152509150505b919050565b6000610f84610a1c565b8210610fca576000826040517fa57d13dc000000000000000000000000000000000000000000000000000000008152600401610fc19291906135aa565b60405180910390fd5b60088281548110610fde57610fdd6135d3565b5b90600052602060002001549050919050565b6000610ffb8261180d565b9050919050565b60008073ffffffffffffffffffffffffffffffffffffffff168273ffffffffffffffffffffffffffffffffffffffff16036110755760006040517f89c62b6400000000000000000000000000000000000000000000000000000000815260040161106c9190612dea565b60405180910390fd5b600360008373ffffffffffffffffffffffffffffffffffffffff1673ffffffffffffffffffffffffffffffffffffffff168152602001908152602001600020549050919050565b6110c4611a6e565b6110ce6000611af5565b565b6110d8611a6e565b600d54811061111c576040517f08c379a00000000000000000000000000000000000000000000000000000000081526004016111139061364e565b60405180910390fd5b80600c8190555050565b6000611130610a1c565b600d5461113d919061366e565b905090565b60006001820361116257629e34004261115b919061334c565b90506111fa565b6002820361118057624f1a0042611179919061334c565b90506111f9565b6003820361119e576220f58042611197919061334c565b90506111f8565b600482036111bc57620d2f00426111b5919061334c565b90506111f7565b6040517f08c379a00000000000000000000000000000000000000000000000000000000081526004016111ee906136ee565b60405180910390fd5b5b5b5b6010600083815260200190815260200160002054341015611250576040517f08c379a000000000000000000000000000000000000000000000000000000000815260040161124790613780565b60405180910390fd5b61125a8282610929565b5050565b6000600a60009054906101000a900473ffffffffffffffffffffffffffffffffffffffff16905090565b6000600d54905090565b61129a611a6e565b80600e819055506002600e546112b091906137a0565b60106000808152602001908152602001600020819055506005600e546112d691906137a0565b6010600060018152602001908152602001600020819055506003600e546112fd91906137a0565b6010600060028152602001908152602001600020819055506002600e5461132491906137a0565b6010600060038152602001908152602001600020819055506001600e5461134b91906137a0565b60106000600481526020019081526020016000208190555050565b606060018054611375906131ee565b80601f01602080910402602001604051908101604052809291908181526020018280546113a1906131ee565b80156113ee5780601f106113c3576101008083540402835291602001916113ee565b820191906000526020600020905b8154815290600101906020018083116113d157829003601f168201915b5050505050905090565b6000600e54905090565b6000600c54905090565b61141e6114176118d2565b8383611bbb565b5050565b61142d848484610bb2565b61143984848484611d2a565b50505050565b3373ffffffffffffffffffffffffffffffffffffffff1661145f82610ff0565b73ffffffffffffffffffffffffffffffffffffffff1614806114b457503373ffffffffffffffffffffffffffffffffffffffff1661149c826108f7565b73ffffffffffffffffffffffffffffffffffffffff16145b806114f157506114c261125e565b73ffffffffffffffffffffffffffffffffffffffff163373ffffffffffffffffffffffffffffffffffffffff16145b611530576040517f08c379a00000000000000000000000000000000000000000000000000000000081526004016115279061382e565b60405180910390fd5b61153981611ee1565b50565b611544611a6e565b61154d8261190a565b61158c576040517f08c379a000000000000000000000000000000000000000000000000000000000815260040161158390613553565b60405180910390fd5b8060116000848152602001908152602001600020819055505050565b60606115b38261180d565b5060006115be611f67565b905060008151116115de5760405180602001604052806000815250611609565b806115e884611f7e565b6040516020016115f992919061388a565b6040516020818303038152906040525b915050919050565b6000600560008473ffffffffffffffffffffffffffffffffffffffff1673ffffffffffffffffffffffffffffffffffffffff16815260200190815260200160002060008373ffffffffffffffffffffffffffffffffffffffff1673ffffffffffffffffffffffffffffffffffffffff16815260200190815260200160002060009054906101000a900460ff16905092915050565b6116ad611a6e565b600073ffffffffffffffffffffffffffffffffffffffff168173ffffffffffffffffffffffffffffffffffffffff160361171f5760006040517f1e4fbdf70000000000000000000000000000000000000000000000000000000081526004016117169190612dea565b60405180910390fd5b61172881611af5565b50565b60007f80ac58cd000000000000000000000000000000000000000000000000000000007bffffffffffffffffffffffffffffffffffffffffffffffffffffffff1916827bffffffffffffffffffffffffffffffffffffffffffffffffffffffff191614806117f657507f5b5e139f000000000000000000000000000000000000000000000000000000007bffffffffffffffffffffffffffffffffffffffffffffffffffffffff1916827bffffffffffffffffffffffffffffffffffffffffffffffffffffffff1916145b8061180657506118058261204c565b5b9050919050565b600080611819836120b6565b9050600073ffffffffffffffffffffffffffffffffffffffff168173ffffffffffffffffffffffffffffffffffffffff160361188c57826040517f7e2732890000000000000000000000000000000000000000000000000000000081526004016118839190612ec0565b60405180910390fd5b80915050919050565b60006004600083815260200190815260200160002060009054906101000a900473ffffffffffffffffffffffffffffffffffffffff169050919050565b600033905090565b6118e783838360016120f3565b505050565b6119068282604051806020016040528060008152506122b8565b5050565b60008061191683610ff0565b9050600073ffffffffffffffffffffffffffffffffffffffff168173ffffffffffffffffffffffffffffffffffffffff161415915050919050565b60008061195f8585856122d4565b9050600073ffffffffffffffffffffffffffffffffffffffff168173ffffffffffffffffffffffffffffffffffffffff16036119a35761199e846124ee565b6119e2565b8473ffffffffffffffffffffffffffffffffffffffff168173ffffffffffffffffffffffffffffffffffffffff16146119e1576119e08185612537565b5b5b600073ffffffffffffffffffffffffffffffffffffffff168573ffffffffffffffffffffffffffffffffffffffff1603611a2457611a1f84612698565b611a63565b8473ffffffffffffffffffffffffffffffffffffffff168173ffffffffffffffffffffffffffffffffffffffff1614611a6257611a618585612769565b5b5b809150509392505050565b611a766118d2565b73ffffffffffffffffffffffffffffffffffffffff16611a9461125e565b73ffffffffffffffffffffffffffffffffffffffff1614611af357611ab76118d2565b6040517f118cdaa7000000000000000000000000000000000000000000000000000000008152600401611aea9190612dea565b60405180910390fd5b565b6000600a60009054906101000a900473ffffffffffffffffffffffffffffffffffffffff16905081600a60006101000a81548173ffffffffffffffffffffffffffffffffffffffff021916908373ffffffffffffffffffffffffffffffffffffffff1602179055508173ffffffffffffffffffffffffffffffffffffffff168173ffffffffffffffffffffffffffffffffffffffff167f8be0079c531659141344cd1fd0a4f28419497f9722a3daafe3b4186f6b6457e060405160405180910390a35050565b600073ffffffffffffffffffffffffffffffffffffffff168273ffffffffffffffffffffffffffffffffffffffff1603611c2c57816040517f5b08ba18000000000000000000000000000000000000000000000000000000008152600401611c239190612dea565b60405180910390fd5b80600560008573ffffffffffffffffffffffffffffffffffffffff1673ffffffffffffffffffffffffffffffffffffffff16815260200190815260200160002060008473ffffffffffffffffffffffffffffffffffffffff1673ffffffffffffffffffffffffffffffffffffffff16815260200190815260200160002060006101000a81548160ff0219169083151502179055508173ffffffffffffffffffffffffffffffffffffffff168373ffffffffffffffffffffffffffffffffffffffff167f17307eab39ab6107e8899845ad3d59bd9653f200f220920489ca2b5937696c3183604051611d1d9190612c79565b60405180910390a3505050565b60008373ffffffffffffffffffffffffffffffffffffffff163b1115611edb578273ffffffffffffffffffffffffffffffffffffffff1663150b7a02611d6e6118d2565b8685856040518563ffffffff1660e01b8152600401611d909493929190613903565b6020604051808303816000875af1925050508015611dcc57506040513d601f19601f82011682018060405250810190611dc99190613964565b60015b611e50573d8060008114611dfc576040519150601f19603f3d011682016040523d82523d6000602084013e611e01565b606091505b506000815103611e4857836040517f64a0ae92000000000000000000000000000000000000000000000000000000008152600401611e3f9190612dea565b60405180910390fd5b805181602001fd5b63150b7a0260e01b7bffffffffffffffffffffffffffffffffffffffffffffffffffffffff1916817bffffffffffffffffffffffffffffffffffffffffffffffffffffffff191614611ed957836040517f64a0ae92000000000000000000000000000000000000000000000000000000008152600401611ed09190612dea565b60405180910390fd5b505b50505050565b6000611ef06000836000611951565b9050600073ffffffffffffffffffffffffffffffffffffffff168173ffffffffffffffffffffffffffffffffffffffff1603611f6357816040517f7e273289000000000000000000000000000000000000000000000000000000008152600401611f5a9190612ec0565b60405180910390fd5b5050565b606060405180602001604052806000815250905090565b606060006001611f8d846127f4565b01905060008167ffffffffffffffff811115611fac57611fab612fd1565b5b6040519080825280601f01601f191660200182016040528015611fde5781602001600182028036833780820191505090505b509050600082602001820190505b600115612041578080600190039150507f3031323334353637383961626364656600000000000000000000000000000000600a86061a8153600a8581612035576120346134a7565b5b04945060008503611fec575b819350505050919050565b60007f01ffc9a7000000000000000000000000000000000000000000000000000000007bffffffffffffffffffffffffffffffffffffffffffffffffffffffff1916827bffffffffffffffffffffffffffffffffffffffffffffffffffffffff1916149050919050565b60006002600083815260200190815260200160002060009054906101000a900473ffffffffffffffffffffffffffffffffffffffff169050919050565b808061212c5750600073ffffffffffffffffffffffffffffffffffffffff168273ffffffffffffffffffffffffffffffffffffffff1614155b1561226057600061213c8461180d565b9050600073ffffffffffffffffffffffffffffffffffffffff168373ffffffffffffffffffffffffffffffffffffffff16141580156121a757508273ffffffffffffffffffffffffffffffffffffffff168173ffffffffffffffffffffffffffffffffffffffff1614155b80156121ba57506121b88184611611565b155b156121fc57826040517fa9fbf51f0000000000000000000000000000000000000000000000000000000081526004016121f39190612dea565b60405180910390fd5b811561225e57838573ffffffffffffffffffffffffffffffffffffffff168273ffffffffffffffffffffffffffffffffffffffff167f8c5be1e5ebec7d5bd14f71427d1e84f3dd0314c0f7b2291e5b200ac8c7c3b92560405160405180910390a45b505b836004600085815260200190815260200160002060006101000a81548173ffffffffffffffffffffffffffffffffffffffff021916908373ffffffffffffffffffffffffffffffffffffffff16021790555050505050565b6122c28383612947565b6122cf6000848484611d2a565b505050565b6000806122e0846120b6565b9050600073ffffffffffffffffffffffffffffffffffffffff168373ffffffffffffffffffffffffffffffffffffffff161461232257612321818486612a40565b5b600073ffffffffffffffffffffffffffffffffffffffff168173ffffffffffffffffffffffffffffffffffffffff16146123b3576123646000856000806120f3565b6001600360008373ffffffffffffffffffffffffffffffffffffffff1673ffffffffffffffffffffffffffffffffffffffff168152602001908152602001600020600082825403925050819055505b600073ffffffffffffffffffffffffffffffffffffffff168573ffffffffffffffffffffffffffffffffffffffff1614612436576001600360008773ffffffffffffffffffffffffffffffffffffffff1673ffffffffffffffffffffffffffffffffffffffff168152602001908152602001600020600082825401925050819055505b846002600086815260200190815260200160002060006101000a81548173ffffffffffffffffffffffffffffffffffffffff021916908373ffffffffffffffffffffffffffffffffffffffff160217905550838573ffffffffffffffffffffffffffffffffffffffff168273ffffffffffffffffffffffffffffffffffffffff167fddf252ad1be2c89b69c2b068fc378daa952ba7f163c4a11628f55a4df523b3ef60405160405180910390a4809150509392505050565b6008805490506009600083815260200190815260200160002081905550600881908060018154018082558091505060019003906000526020600020016000909190919091505550565b600061254283611002565b9050600060076000848152602001908152602001600020549050818114612627576000600660008673ffffffffffffffffffffffffffffffffffffffff1673ffffffffffffffffffffffffffffffffffffffff168152602001908152602001600020600084815260200190815260200160002054905080600660008773ffffffffffffffffffffffffffffffffffffffff1673ffffffffffffffffffffffffffffffffffffffff168152602001908152602001600020600084815260200190815260200160002081905550816007600083815260200190815260200160002081905550505b6007600084815260200190815260200160002060009055600660008573ffffffffffffffffffffffffffffffffffffffff1673ffffffffffffffffffffffffffffffffffffffff16815260200190815260200160002060008381526020019081526020016000206000905550505050565b600060016008805490506126ac919061366e565b90506000600960008481526020019081526020016000205490506000600883815481106126dc576126db6135d3565b5b9060005260206000200154905080600883815481106126fe576126fd6135d3565b5b90600052602060002001819055508160096000838152602001908152602001600020819055506009600085815260200190815260200160002060009055600880548061274d5761274c613991565b5b6001900381819060005260206000200160009055905550505050565b6000600161277684611002565b612780919061366e565b905081600660008573ffffffffffffffffffffffffffffffffffffffff1673ffffffffffffffffffffffffffffffffffffffff168152602001908152602001600020600083815260200190815260200160002081905550806007600084815260200190815260200160002081905550505050565b600080600090507a184f03e93ff9f4daa797ed6e38ed64bf6a1f0100000000000000008310612852577a184f03e93ff9f4daa797ed6e38ed64bf6a1f0100000000000000008381612848576128476134a7565b5b0492506040810190505b6d04ee2d6d415b85acef8100000000831061288f576d04ee2d6d415b85acef81000000008381612885576128846134a7565b5b0492506020810190505b662386f26fc1000083106128be57662386f26fc1000083816128b4576128b36134a7565b5b0492506010810190505b6305f5e10083106128e7576305f5e10083816128dd576128dc6134a7565b5b0492506008810190505b612710831061290c576127108381612902576129016134a7565b5b0492506004810190505b6064831061292f5760648381612925576129246134a7565b5b0492506002810190505b600a831061293e576001810190505b80915050919050565b600073ffffffffffffffffffffffffffffffffffffffff168273ffffffffffffffffffffffffffffffffffffffff16036129b95760006040517f64a0ae920000000000000000000000000000000000000000000000000000000081526004016129b09190612dea565b60405180910390fd5b60006129c783836000611951565b9050600073ffffffffffffffffffffffffffffffffffffffff168173ffffffffffffffffffffffffffffffffffffffff1614612a3b5760006040517f73c6ac6e000000000000000000000000000000000000000000000000000000008152600401612a329190612dea565b60405180910390fd5b505050565b612a4b838383612b04565b612aff57600073ffffffffffffffffffffffffffffffffffffffff168373ffffffffffffffffffffffffffffffffffffffff1603612ac057806040517f7e273289000000000000000000000000000000000000000000000000000000008152600401612ab79190612ec0565b60405180910390fd5b81816040517f177e802f000000000000000000000000000000000000000000000000000000008152600401612af69291906135aa565b60405180910390fd5b505050565b60008073ffffffffffffffffffffffffffffffffffffffff168373ffffffffffffffffffffffffffffffffffffffff1614158015612bbc57508273ffffffffffffffffffffffffffffffffffffffff168473ffffffffffffffffffffffffffffffffffffffff161480612b7d5750612b7c8484611611565b5b80612bbb57508273ffffffffffffffffffffffffffffffffffffffff16612ba383611895565b73ffffffffffffffffffffffffffffffffffffffff16145b5b90509392505050565b6000604051905090565b600080fd5b600080fd5b60007fffffffff0000000000000000000000000000000000000000000000000000000082169050919050565b612c0e81612bd9565b8114612c1957600080fd5b50565b600081359050612c2b81612c05565b92915050565b600060208284031215612c4757612c46612bcf565b5b6000612c5584828501612c1c565b91505092915050565b60008115159050919050565b612c7381612c5e565b82525050565b6000602082019050612c8e6000830184612c6a565b92915050565b600081519050919050565b600082825260208201905092915050565b60005b83811015612cce578082015181840152602081019050612cb3565b60008484015250505050565b6000601f19601f8301169050919050565b6000612cf682612c94565b612d008185612c9f565b9350612d10818560208601612cb0565b612d1981612cda565b840191505092915050565b60006020820190508181036000830152612d3e8184612ceb565b905092915050565b6000819050919050565b612d5981612d46565b8114612d6457600080fd5b50565b600081359050612d7681612d50565b92915050565b600060208284031215612d9257612d91612bcf565b5b6000612da084828501612d67565b91505092915050565b600073ffffffffffffffffffffffffffffffffffffffff82169050919050565b6000612dd482612da9565b9050919050565b612de481612dc9565b82525050565b6000602082019050612dff6000830184612ddb565b92915050565b612e0e81612dc9565b8114612e1957600080fd5b50565b600081359050612e2b81612e05565b92915050565b60008060408385031215612e4857612e47612bcf565b5b6000612e5685828601612e1c565b9250506020612e6785828601612d67565b9150509250929050565b60008060408385031215612e8857612e87612bcf565b5b6000612e9685828601612d67565b9250506020612ea785828601612d67565b9150509250929050565b612eba81612d46565b82525050565b6000602082019050612ed56000830184612eb1565b92915050565b600080600060608486031215612ef457612ef3612bcf565b5b6000612f0286828701612e1c565b9350506020612f1386828701612e1c565b9250506040612f2486828701612d67565b9150509250925092565b600060208284031215612f4457612f43612bcf565b5b6000612f5284828501612e1c565b91505092915050565b612f6481612c5e565b8114612f6f57600080fd5b50565b600081359050612f8181612f5b565b92915050565b60008060408385031215612f9e57612f9d612bcf565b5b6000612fac85828601612e1c565b9250506020612fbd85828601612f72565b9150509250929050565b600080fd5b600080fd5b7f4e487b7100000000000000000000000000000000000000000000000000000000600052604160045260246000fd5b61300982612cda565b810181811067ffffffffffffffff8211171561302857613027612fd1565b5b80604052505050565b600061303b612bc5565b90506130478282613000565b919050565b600067ffffffffffffffff82111561306757613066612fd1565b5b61307082612cda565b9050602081019050919050565b82818337600083830152505050565b600061309f61309a8461304c565b613031565b9050828152602081018484840111156130bb576130ba612fcc565b5b6130c684828561307d565b509392505050565b600082601f8301126130e3576130e2612fc7565b5b81356130f384826020860161308c565b91505092915050565b6000806000806080858703121561311657613115612bcf565b5b600061312487828801612e1c565b945050602061313587828801612e1c565b935050604061314687828801612d67565b925050606085013567ffffffffffffffff81111561316757613166612bd4565b5b613173878288016130ce565b91505092959194509250565b6000806040838503121561319657613195612bcf565b5b60006131a485828601612e1c565b92505060206131b585828601612e1c565b9150509250929050565b7f4e487b7100000000000000000000000000000000000000000000000000000000600052602260045260246000fd5b6000600282049050600182168061320657607f821691505b602082108103613219576132186131bf565b5b50919050565b7f4d6178696d756d206361726473206d696e746564000000000000000000000000600082015250565b6000613255601483612c9f565b91506132608261321f565b602082019050919050565b6000602082019050818103600083015261328481613248565b9050919050565b7f4d6178696d756e206361726473206d696e74656420666f72207468652061636360008201527f6f756e7400000000000000000000000000000000000000000000000000000000602082015250565b60006132e7602483612c9f565b91506132f28261328b565b604082019050919050565b60006020820190508181036000830152613316816132da565b9050919050565b7f4e487b7100000000000000000000000000000000000000000000000000000000600052601160045260246000fd5b600061335782612d46565b915061336283612d46565b925082820190508082111561337a5761337961331d565b5b92915050565b7f4e6f742073756666696369656e7420657468657220666f722072616e646f6d2060008201527f4e4654206d696e74696e67000000000000000000000000000000000000000000602082015250565b60006133dc602b83612c9f565b91506133e782613380565b604082019050919050565b6000602082019050818103600083015261340b816133cf565b9050919050565b6000819050919050565b61342d61342882612d46565b613412565b82525050565b60008160601b9050919050565b600061344b82613433565b9050919050565b600061345d82613440565b9050919050565b61347561347082612dc9565b613452565b82525050565b6000613487828561341c565b6020820191506134978284613464565b6014820191508190509392505050565b7f4e487b7100000000000000000000000000000000000000000000000000000000600052601260045260246000fd5b60006134e182612d46565b91506134ec83612d46565b9250826134fc576134fb6134a7565b5b828206905092915050565b7f546f6b656e20646f6573206e6f74206578697374000000000000000000000000600082015250565b600061353d601483612c9f565b915061354882613507565b602082019050919050565b6000602082019050818103600083015261356c81613530565b9050919050565b60006060820190506135886000830186612ddb565b6135956020830185612eb1565b6135a26040830184612ddb565b949350505050565b60006040820190506135bf6000830185612ddb565b6135cc6020830184612eb1565b9392505050565b7f4e487b7100000000000000000000000000000000000000000000000000000000600052603260045260246000fd5b7f556e76616c696420636f756e74206e756d626572000000000000000000000000600082015250565b6000613638601483612c9f565b915061364382613602565b602082019050919050565b600060208201905081810360008301526136678161362b565b9050919050565b600061367982612d46565b915061368483612d46565b925082820390508181111561369c5761369b61331d565b5b92915050565b7f496e76616c696420636172642074797065000000000000000000000000000000600082015250565b60006136d8601183612c9f565b91506136e3826136a2565b602082019050919050565b60006020820190508181036000830152613707816136cb565b9050919050565b7f4e6f742073756666696369656e7420657468657220666f72207370656369666960008201527f63204e4654206d696e74696e6700000000000000000000000000000000000000602082015250565b600061376a602d83612c9f565b91506137758261370e565b604082019050919050565b600060208201905081810360008301526137998161375d565b9050919050565b60006137ab82612d46565b91506137b683612d46565b92508282026137c481612d46565b915082820484148315176137db576137da61331d565b5b5092915050565b7f43616c6c6572206973206e6f74206f776e6572206e6f7220617070726f766564600082015250565b6000613818602083612c9f565b9150613823826137e2565b602082019050919050565b600060208201905081810360008301526138478161380b565b9050919050565b600081905092915050565b600061386482612c94565b61386e818561384e565b935061387e818560208601612cb0565b80840191505092915050565b60006138968285613859565b91506138a28284613859565b91508190509392505050565b600081519050919050565b600082825260208201905092915050565b60006138d5826138ae565b6138df81856138b9565b93506138ef818560208601612cb0565b6138f881612cda565b840191505092915050565b60006080820190506139186000830187612ddb565b6139256020830186612ddb565b6139326040830185612eb1565b818103606083015261394481846138ca565b905095945050505050565b60008151905061395e81612c05565b92915050565b60006020828403121561397a57613979612bcf565b5b60006139888482850161394f565b91505092915050565b7f4e487b7100000000000000000000000000000000000000000000000000000000600052603160045260246000fdfea26469706673582212205687a0f02493f117376c8243268b2110deb6e514b06d8f78714f537ad155ee9664736f6c63430008140033",
  "linkReferences": {},
  "deployedLinkReferences": {}
}